:020000040000FA
:1000000001288316C0308500FF30860087018801F3
:1000100006309F008113831285018701880101301A
:10002000A000A10016203320462012280608A200B6
:10003000A20922182420A218272022192A20A21956
:100040002D20221A302008000130A10008000230C3
:10005000A10008000330A10008000430A10008003E
:100060000530A10008002008210203194328031CC1
:100070003E28023087005B20A00A08000430870079
:100080005B20A003080001308700080020084D20F5
:1000900085002008542088000800820700340134BD
:1000A000023404340834103482073F3406345B349D
:1000B0004F3466346D34FF30A400FF30A500A50B2B
:0800C0005F28A40B5D28080075
:0400C80000340034CC
:02400E00713F00
:00000001FF
